{
  "_format": "hh-sol-artifact-1",
  "contractName": "Charity",
  "sourceName": "contracts/charity.sol",
  "abi": [
    {
      "inputs": [],
      "stateMutability": "nonpayable",
      "type": "constructor"
    },
    {
      "anonymous": false,
      "inputs": [
        {
          "indexed": true,
          "internalType": "uint256",
          "name": "charityId",
          "type": "uint256"
        },
        {
          "indexed": false,
          "internalType": "string",
          "name": "name",
          "type": "string"
        }
      ],
      "name": "CharityAdded",
      "type": "event"
    },
    {
      "anonymous": false,
      "inputs": [
        {
          "indexed": true,
          "internalType": "address",
          "name": "donor",
          "type": "address"
        },
        {
          "indexed": true,
          "internalType": "uint256",
          "name": "charityId",
          "type": "uint256"
        },
        {
          "indexed": false,
          "internalType": "uint256",
          "name": "amount",
          "type": "uint256"
        }
      ],
      "name": "DonationMade",
      "type": "event"
    },
    {
      "anonymous": false,
      "inputs": [
        {
          "indexed": true,
          "internalType": "address",
          "name": "owner",
          "type": "address"
        },
        {
          "indexed": false,
          "internalType": "uint256",
          "name": "amount",
          "type": "uint256"
        }
      ],
      "name": "Withdrawn",
      "type": "event"
    },
    {
      "inputs": [
        {
          "internalType": "string",
          "name": "_name",
          "type": "string"
        }
      ],
      "name": "addCharity",
      "outputs": [],
      "stateMutability": "nonpayable",
      "type": "function"
    },
    {
      "inputs": [
        {
          "internalType": "uint256",
          "name": "",
          "type": "uint256"
        }
      ],
      "name": "charities",
      "outputs": [
        {
          "internalType": "string",
          "name": "name",
          "type": "string"
        },
        {
          "internalType": "uint256",
          "name": "totalDonations",
          "type": "uint256"
        }
      ],
      "stateMutability": "view",
      "type": "function"
    },
    {
      "inputs": [],
      "name": "charityCount",
      "outputs": [
        {
          "internalType": "uint256",
          "name": "",
          "type": "uint256"
        }
      ],
      "stateMutability": "view",
      "type": "function"
    },
    {
      "inputs": [
        {
          "internalType": "uint256",
          "name": "_charityId",
          "type": "uint256"
        }
      ],
      "name": "donate",
      "outputs": [],
      "stateMutability": "payable",
      "type": "function"
    },
    {
      "inputs": [],
      "name": "getBalance",
      "outputs": [
        {
          "internalType": "uint256",
          "name": "",
          "type": "uint256"
        }
      ],
      "stateMutability": "view",
      "type": "function"
    },
    {
      "inputs": [
        {
          "internalType": "uint256",
          "name": "_charityId",
          "type": "uint256"
        }
      ],
      "name": "getCharityDonations",
      "outputs": [
        {
          "internalType": "uint256",
          "name": "",
          "type": "uint256"
        }
      ],
      "stateMutability": "view",
      "type": "function"
    },
    {
      "inputs": [
        {
          "internalType": "address",
          "name": "_user",
          "type": "address"
        }
      ],
      "name": "getUserDonations",
      "outputs": [
        {
          "internalType": "uint256",
          "name": "",
          "type": "uint256"
        }
      ],
      "stateMutability": "view",
      "type": "function"
    },
    {
      "inputs": [],
      "name": "owner",
      "outputs": [
        {
          "internalType": "address",
          "name": "",
          "type": "address"
        }
      ],
      "stateMutability": "view",
      "type": "function"
    },
    {
      "inputs": [
        {
          "internalType": "address",
          "name": "",
          "type": "address"
        }
      ],
      "name": "userDonations",
      "outputs": [
        {
          "internalType": "uint256",
          "name": "",
          "type": "uint256"
        }
      ],
      "stateMutability": "view",
      "type": "function"
    },
    {
      "inputs": [
        {
          "internalType": "uint256",
          "name": "_amount",
          "type": "uint256"
        }
      ],
      "name": "withdraw",
      "outputs": [],
      "stateMutability": "nonpayable",
      "type": "function"
    }
  ],
  "bytecode": "0x60806040526000600355348015601457600080fd5b50336000806101000a81548173ffffffffffffffffffffffffffffffffffffffff021916908373ffffffffffffffffffffffffffffffffffffffff16021790555061119e806100646000396000f3fe6080604052600436106100915760003560e01c80638da5cb5b116100595780638da5cb5b146101a157806391329493146101cc578063abcc607e146101f7578063f14faf6f14610220578063fb709d2e1461023c57610091565b80630aa4991d1461009657806312065fe0146100d35780632e1a7d4d146100fe57806359d06eba14610127578063732435b214610164575b600080fd5b3480156100a257600080fd5b506100bd60048036038101906100b891906108c5565b61027a565b6040516100ca919061090b565b60405180910390f35b3480156100df57600080fd5b506100e8610292565b6040516100f5919061090b565b60405180910390f35b34801561010a57600080fd5b5061012560048036038101906101209190610952565b61029a565b005b34801561013357600080fd5b5061014e60048036038101906101499190610952565b610443565b60405161015b919061090b565b60405180910390f35b34801561017057600080fd5b5061018b600480360381019061018691906108c5565b6104a7565b604051610198919061090b565b60405180910390f35b3480156101ad57600080fd5b506101b66104f0565b6040516101c3919061098e565b60405180910390f35b3480156101d857600080fd5b506101e1610514565b6040516101ee919061090b565b60405180910390f35b34801561020357600080fd5b5061021e60048036038101906102199190610aef565b61051a565b005b61023a60048036038101906102359190610952565b61064b565b005b34801561024857600080fd5b50610263600480360381019061025e9190610952565b6107a7565b604051610271929190610bb7565b60405180910390f35b60016020528060005260406000206000915090505481565b600047905090565b60008054906101000a900473ffffffffffffffffffffffffffffffffffffffff1673ffffffffffffffffffffffffffffffffffffffff163373ffffffffffffffffffffffffffffffffffffffff1614610328576040517f08c379a000000000000000000000000000000000000000000000000000000000815260040161031f90610c59565b60405180910390fd5b8047101561036b576040517f08c379a000000000000000000000000000000000000000000000000000000000815260040161036290610cc5565b60405180910390fd5b60008054906101000a900473ffffffffffffffffffffffffffffffffffffffff1673ffffffffffffffffffffffffffffffffffffffff166108fc829081150290604051600060405180830381858888f193505050501580156103d1573d6000803e3d6000fd5b5060008054906101000a900473ffffffffffffffffffffffffffffffffffffffff1673ffffffffffffffffffffffffffffffffffffffff167f7084f5476618d8e60b11ef0d7d3f06914655adb8793e28ff7f018d4c76d505d582604051610438919061090b565b60405180910390a250565b60006003548210610489576040517f08c379a000000000000000000000000000000000000000000000000000000000815260040161048090610d31565b60405180910390fd5b60026000838152602001908152602001600020600101549050919050565b6000600160008373ffffffffffffffffffffffffffffffffffffffff1673ffffffffffffffffffffffffffffffffffffffff168152602001908152602001600020549050919050565b60008054906101000a900473ffffffffffffffffffffffffffffffffffffffff1681565b60035481565b60008054906101000a900473ffffffffffffffffffffffffffffffffffffffff1673ffffffffffffffffffffffffffffffffffffffff163373ffffffffffffffffffffffffffffffffffffffff16146105a8576040517f08c379a000000000000000000000000000000000000000000000000000000000815260040161059f90610c59565b60405180910390fd5b6040518060400160405280828152602001600081525060026000600354815260200190815260200160002060008201518160000190816105e89190610f5d565b50602082015181600101559050506003547fa546062718c887ccd5ef798bd379d69fec2711e51799a1af5dc39396e65bd87382604051610628919061102f565b60405180910390a26003600081548092919061064390611080565b919050555050565b600354811061068f576040517f08c379a000000000000000000000000000000000000000000000000000000000815260040161068690610d31565b60405180910390fd5b600034116106d2576040517f08c379a00000000000000000000000000000000000000000000000000000000081526004016106c990611114565b60405180910390fd5b34600160003373ffffffffffffffffffffffffffffffffffffffff1673ffffffffffffffffffffffffffffffffffffffff16815260200190815260200160002060008282546107219190611134565b925050819055503460026000838152602001908152602001600020600101600082825461074e9190611134565b92505081905550803373ffffffffffffffffffffffffffffffffffffffff167fd97bcdf12fa1d5342fc942da5eadf35c7597f34f8da7274c2b0d2ad9798426793460405161079c919061090b565b60405180910390a350565b60026020528060005260406000206000915090508060000180546107ca90610d80565b80601f01602080910402602001604051908101604052809291908181526020018280546107f690610d80565b80156108435780601f1061081857610100808354040283529160200191610843565b820191906000526020600020905b81548152906001019060200180831161082657829003601f168201915b5050505050908060010154905082565b6000604051905090565b600080fd5b600080fd5b600073ffffffffffffffffffffffffffffffffffffffff82169050919050565b600061089282610867565b9050919050565b6108a281610887565b81146108ad57600080fd5b50565b6000813590506108bf81610899565b92915050565b6000602082840312156108db576108da61085d565b5b60006108e9848285016108b0565b91505092915050565b6000819050919050565b610905816108f2565b82525050565b600060208201905061092060008301846108fc565b92915050565b61092f816108f2565b811461093a57600080fd5b50565b60008135905061094c81610926565b92915050565b6000602082840312156109685761096761085d565b5b60006109768482850161093d565b91505092915050565b61098881610887565b82525050565b60006020820190506109a3600083018461097f565b92915050565b600080fd5b600080fd5b6000601f19601f8301169050919050565b7f4e487b7100000000000000000000000000000000000000000000000000000000600052604160045260246000fd5b6109fc826109b3565b810181811067ffffffffffffffff82111715610a1b57610a1a6109c4565b5b80604052505050565b6000610a2e610853565b9050610a3a82826109f3565b919050565b600067ffffffffffffffff821115610a5a57610a596109c4565b5b610a63826109b3565b9050602081019050919050565b82818337600083830152505050565b6000610a92610a8d84610a3f565b610a24565b905082815260208101848484011115610aae57610aad6109ae565b5b610ab9848285610a70565b509392505050565b600082601f830112610ad657610ad56109a9565b5b8135610ae6848260208601610a7f565b91505092915050565b600060208284031215610b0557610b0461085d565b5b600082013567ffffffffffffffff811115610b2357610b22610862565b5b610b2f84828501610ac1565b91505092915050565b600081519050919050565b600082825260208201905092915050565b60005b83811015610b72578082015181840152602081019050610b57565b60008484015250505050565b6000610b8982610b38565b610b938185610b43565b9350610ba3818560208601610b54565b610bac816109b3565b840191505092915050565b60006040820190508181036000830152610bd18185610b7e565b9050610be060208301846108fc565b9392505050565b7f4f6e6c792074686520636f6e7472616374206f776e65722063616e2063616c6c60008201527f20746869732066756e6374696f6e2e0000000000000000000000000000000000602082015250565b6000610c43602f83610b43565b9150610c4e82610be7565b604082019050919050565b60006020820190508181036000830152610c7281610c36565b9050919050565b7f496e73756666696369656e7420636f6e74726163742062616c616e63652e0000600082015250565b6000610caf601e83610b43565b9150610cba82610c79565b602082019050919050565b60006020820190508181036000830152610cde81610ca2565b9050919050565b7f4368617269747920646f6573206e6f742065786973742e000000000000000000600082015250565b6000610d1b601783610b43565b9150610d2682610ce5565b602082019050919050565b60006020820190508181036000830152610d4a81610d0e565b9050919050565b7f4e487b7100000000000000000000000000000000000000000000000000000000600052602260045260246000fd5b60006002820490506001821680610d9857607f821691505b602082108103610dab57610daa610d51565b5b50919050565b60008190508160005260206000209050919050565b60006020601f8301049050919050565b600082821b905092915050565b600060088302610e137fffffffffffffffffffffffffffffffffffffffffffffffffffffffffffffffff82610dd6565b610e1d8683610dd6565b95508019841693508086168417925050509392505050565b6000819050919050565b6000610e5a610e55610e50846108f2565b610e35565b6108f2565b9050919050565b6000819050919050565b610e7483610e3f565b610e88610e8082610e61565b848454610de3565b825550505050565b600090565b610e9d610e90565b610ea8818484610e6b565b505050565b5b81811015610ecc57610ec1600082610e95565b600181019050610eae565b5050565b601f821115610f1157610ee281610db1565b610eeb84610dc6565b81016020851015610efa578190505b610f0e610f0685610dc6565b830182610ead565b50505b505050565b600082821c905092915050565b6000610f3460001984600802610f16565b1980831691505092915050565b6000610f4d8383610f23565b9150826002028217905092915050565b610f6682610b38565b67ffffffffffffffff811115610f7f57610f7e6109c4565b5b610f898254610d80565b610f94828285610ed0565b600060209050601f831160018114610fc75760008415610fb5578287015190505b610fbf8582610f41565b865550611027565b601f198416610fd586610db1565b60005b82811015610ffd57848901518255600182019150602085019450602081019050610fd8565b8683101561101a5784890151611016601f891682610f23565b8355505b6001600288020188555050505b505050505050565b600060208201905081810360008301526110498184610b7e565b905092915050565b7f4e487b7100000000000000000000000000000000000000000000000000000000600052601160045260246000fd5b600061108b826108f2565b91507fffffffffffffffffffffffffffffffffffffffffffffffffffffffffffffffff82036110bd576110bc611051565b5b600182019050919050565b7f446f6e6174696f6e206d7573742062652067726561746572207468616e20302e600082015250565b60006110fe602083610b43565b9150611109826110c8565b602082019050919050565b6000602082019050818103600083015261112d816110f1565b9050919050565b600061113f826108f2565b915061114a836108f2565b925082820190508082111561116257611161611051565b5b9291505056fea26469706673582212208e8f4769baaec6ad1f01fab0634c03af7c29be0536ec805d33d8d9589165ca4e64736f6c634300081b0033",
  "linkReferences": {},
  "deployedLinkReferences": {}
}