{
  "_format": "hh-sol-artifact-1",
  "contractName": "Charity",
  "sourceName": "contracts/charity.sol",
  "abi": [
    {
      "inputs": [],
      "stateMutability": "nonpayable",
      "type": "constructor"
    },
    {
      "anonymous": false,
      "inputs": [
        {
          "indexed": true,
          "internalType": "address",
          "name": "donor",
          "type": "address"
        },
        {
          "indexed": false,
          "internalType": "uint256",
          "name": "amount",
          "type": "uint256"
        }
      ],
      "name": "DonationMade",
      "type": "event"
    },
    {
      "inputs": [],
      "name": "donate",
      "outputs": [],
      "stateMutability": "payable",
      "type": "function"
    },
    {
      "inputs": [
        {
          "internalType": "address",
          "name": "",
          "type": "address"
        }
      ],
      "name": "donations",
      "outputs": [
        {
          "internalType": "uint256",
          "name": "",
          "type": "uint256"
        }
      ],
      "stateMutability": "view",
      "type": "function"
    },
    {
      "inputs": [
        {
          "internalType": "address",
          "name": "_donor",
          "type": "address"
        }
      ],
      "name": "getDonations",
      "outputs": [
        {
          "internalType": "uint256",
          "name": "",
          "type": "uint256"
        }
      ],
      "stateMutability": "view",
      "type": "function"
    },
    {
      "inputs": [],
      "name": "owner",
      "outputs": [
        {
          "internalType": "address",
          "name": "",
          "type": "address"
        }
      ],
      "stateMutability": "view",
      "type": "function"
    },
    {
      "inputs": [
        {
          "internalType": "uint256",
          "name": "_amount",
          "type": "uint256"
        }
      ],
      "name": "withdraw",
      "outputs": [],
      "stateMutability": "nonpayable",
      "type": "function"
    }
  ],
  "bytecode": "0x6080604052348015600f57600080fd5b50336000806101000a81548173ffffffffffffffffffffffffffffffffffffffff021916908373ffffffffffffffffffffffffffffffffffffffff1602179055506107058061005f6000396000f3fe60806040526004361061004a5760003560e01c80631910bdc21461004f5780632e1a7d4d1461008c5780638da5cb5b146100b5578063cc6cb19a146100e0578063ed88c68e1461011d575b600080fd5b34801561005b57600080fd5b5061007660048036038101906100719190610433565b610127565b6040516100839190610479565b60405180910390f35b34801561009857600080fd5b506100b360048036038101906100ae91906104c0565b610170565b005b3480156100c157600080fd5b506100ca6102ab565b6040516100d791906104fc565b60405180910390f35b3480156100ec57600080fd5b5061010760048036038101906101029190610433565b6102cf565b6040516101149190610479565b60405180910390f35b6101256102e7565b005b6000600160008373ffffffffffffffffffffffffffffffffffffffff1673ffffffffffffffffffffffffffffffffffffffff168152602001908152602001600020549050919050565b60008054906101000a900473ffffffffffffffffffffffffffffffffffffffff1673ffffffffffffffffffffffffffffffffffffffff163373ffffffffffffffffffffffffffffffffffffffff16146101fe576040517f08c379a00000000000000000000000000000000000000000000000000000000081526004016101f590610574565b60405180910390fd5b80471015610241576040517f08c379a0000000000000000000000000000000000000000000000000000000008152600401610238906105e0565b60405180910390fd5b60008054906101000a900473ffffffffffffffffffffffffffffffffffffffff1673ffffffffffffffffffffffffffffffffffffffff166108fc829081150290604051600060405180830381858888f193505050501580156102a7573d6000803e3d6000fd5b5050565b60008054906101000a900473ffffffffffffffffffffffffffffffffffffffff1681565b60016020528060005260406000206000915090505481565b6000341161032a576040517f08c379a00000000000000000000000000000000000000000000000000000000081526004016103219061064c565b60405180910390fd5b34600160003373ffffffffffffffffffffffffffffffffffffffff1673ffffffffffffffffffffffffffffffffffffffff1681526020019081526020016000206000828254610379919061069b565b925050819055503373ffffffffffffffffffffffffffffffffffffffff167faa13962bc79c7a0bc42cb8169b1705f0a6b55cc404ffb8a589d771ca78675978346040516103c69190610479565b60405180910390a2565b600080fd5b600073ffffffffffffffffffffffffffffffffffffffff82169050919050565b6000610400826103d5565b9050919050565b610410816103f5565b811461041b57600080fd5b50565b60008135905061042d81610407565b92915050565b600060208284031215610449576104486103d0565b5b60006104578482850161041e565b91505092915050565b6000819050919050565b61047381610460565b82525050565b600060208201905061048e600083018461046a565b92915050565b61049d81610460565b81146104a857600080fd5b50565b6000813590506104ba81610494565b92915050565b6000602082840312156104d6576104d56103d0565b5b60006104e4848285016104ab565b91505092915050565b6104f6816103f5565b82525050565b600060208201905061051160008301846104ed565b92915050565b600082825260208201905092915050565b7f4f6e6c79206f776e65722063616e207769746864726177000000000000000000600082015250565b600061055e601783610517565b915061056982610528565b602082019050919050565b6000602082019050818103600083015261058d81610551565b9050919050565b7f496e73756666696369656e742062616c616e6365000000000000000000000000600082015250565b60006105ca601483610517565b91506105d582610594565b602082019050919050565b600060208201905081810360008301526105f9816105bd565b9050919050565b7f446f6e6174696f6e206d7573742062652067726561746572207468616e203000600082015250565b6000610636601f83610517565b915061064182610600565b602082019050919050565b6000602082019050818103600083015261066581610629565b9050919050565b7f4e487b7100000000000000000000000000000000000000000000000000000000600052601160045260246000fd5b60006106a682610460565b91506106b183610460565b92508282019050808211156106c9576106c861066c565b5b9291505056fea264697066735822122099a2a45a54158896a8a44f1203f16e7a28ca62a01dacfe3c8947180d11a6a6b664736f6c634300081b0033",
  "linkReferences": {},
  "deployedLinkReferences": {}
}